:04000000B8EF04F061
:1006000020504943203138463478787820202B20F8
:100610004E524632344C3031204D4F4445205258D2
:10062000200D0A000000949294908B828B90000E13
:10063000026E640E016ECDEC04F00A6E000E026EC6
:100640000A500B6E0A0E036E0B50FDEC04F0000E08
:10065000026E0A0E016ECDEC04F00A6E010E026EFF
:100660000A500B6E010E036E0B50FDEC04F00A6E87
:10067000020E026E0A500B6E010E036E0B50FDEC63
:1006800004F00A6E030E026E0A500B6E030E036E28
:100690000B50FDEC04F00A6E040E026E0A500B6E55
:1006A000000E036E0B50FDEC04F009C004F01EECCC
:1006B00005F00A6E060E026E0A500B6E0E0E036EE9
:1006C0000B50FDEC04F00A6E2A0E026E0A50000E6A
:1006D000046E500E036E0B6E050E056E0B5086EC0D
:1006E00004F00A6E300E026E0A50000E046E500EB8
:1006F000036E0B6E050E056E0B5086EC04F00A6E51
:10070000110E026E0A500B6E050E036E0B50FDECBF
:1007100004F0000E026E640E016ECDEC04F008C011
:1007200004F0F8EC03F0000E026E640E016ECDECE6
:1007300004F01200700ED36E9B8C000E846E84CF7A
:1007400083FF83CF82FF82CF81FF81CF80FF000EA6
:10075000966E96CF95FF95CF94FF94CF93FF93CF4E
:1007600092FF27EC05F0060E036E000E026E25ECDC
:1007700004F046EC05F014EC05F00C6E010E086E6A
:100780000C500D6E400E096E0D5013EC03F0F0ECA2
:1007900004F00009D8A4FBD7000E096E300E086ED5
:1007A0006BEC04F030C080FF3050D8B4F0D7100E9E
:1007B0000C6E000E0D6E300E0E6E000E0F6E0D5094
:1007C0000F1802E10C500E18D8B4E1D7000E036EDA
:1007D000300E026E25EC04F0000E026E100E016E5B
:1007E000000E046E300E036EA1EC04F0D0D7FFD7DC
:1007F000DFEC04F0056E070E026E0550066E700EFB
:10080000036E0650FDEC04F018D0056E000E026E6B
:100810000550066E0F0E036E0650FDEC04F08B8043
:1008200013D0056E000E026E0550066E0E0E036E9E
:100830000650FDEC04F08B9007D00450010AD8B4A8
:10084000E4D7030AD8B4EDD7120013D00250F66EE5
:10085000E96E050EEA6E0350EA6403D0EA6EEF50CB
:1008600003D0F76E0800F550016E3DEC05F0024A2A
:10087000032A0250F66EE96E050EEA6E0350EA6432
:1008800003D0EA6EEF5003D0F76E0800F550000970
:10089000D8B41200DBD78B9202C001F030EC05F027
:1008A000066E000E076E06500AD037EC05F003C046
:1008B000D9FF04C0DAFFDF6E034A042A072A055075
:1008C000075CD8A0F2D703C0D9FF04C0DAFF000E3E
:1008D000DF6E8B8212000A6E610E026E0A5008C033
:1008E00003F009C004F00B6E050E056E0B504BECC7
:1008F00004F00A6E070E026E0A500B6E700E036E45
:100900000B50FDEC04F0DFEC04F012008B9202C0FF
:1009100001F030EC05F0066E000E076E06500BD0AD
:1009200003C0D9FF04C0DAFFDF50016E30EC05F0E0
:10093000034A042A072A0550075CD8A0F1D78B8206
:10094000120001C005F002C006F004D0054A062AD4
:10095000034A042A03C0D9FF04C0DAFF05C0E1FF3F
:1009600006C0E2FFDFCFE7FFE750D8B41200EED7B2
:10097000860EF66E0A0EF76E000EF86E00EE50F060
:1009800010EE05F00900F5CFEEFFE550E150FAE179
:10099000000EF86E00019AEF03F0000E046E000ED8
:1009A000036E06D0FA0E00F0E82EFDD7034A042AA3
:1009B0000150035C02500458D8B01200F3D78B9258
:1009C000026EE10E016E025030EC05F08B828B92CC
:1009D000026EE20E016E025030EC05F08B821200C6
:1009E000046E070E026E045009EC05F0056E05ACAE
:1009F00002D0000E01D0010E12008B92025020098D
:100A0000016E30EC05F003C001F030EC05F08B8294
:100A100012008B9202C001F030EC05F037EC05F0CB
:100A2000036E8B82035012009496949A9488929A43
:100A3000C68AC00EC76E210EC66E1200056E050E68
:100A4000026E055004C003F0FDEC04F01200190E14
:100A5000AF6E948C948E240EAC6EB896AB8E120052
:100A600001C0C9FFC7A0FED7C9CF01F01200000E18
:100A7000C96EC7A0FED7C95012009E9801C0ADFF35
:100A8000ACB21200FDD7050403020100C69A1200A1
:020000040020DA
:08000000FFFFFFFFFFFFFFFF00
:020000040030CA
:0E000000FF01011EFF8181FF0FC00FE00F40C6
:00000001FF
