:0400000098EF0BF07A
:1010000001000A006400E80310270D0A504943203C
:1010100031384634787878202B204E524632344C82
:101020003031204D4F44452054780D0A0053656EF1
:1010300064696E673A20253033640D0A0061646389
:101040002025640D0A000000000E196E130E186EA4
:1010500044D12350250AD8B409D00FC0D9FF10C0FD
:10106000DAFF23C0DFFF0F4A102A37D1000E226EAD
:10107000000E216E156E000E206E155003D02084D8
:10108000114A122A11C0F6FF12C0F7FF000EF86EC7
:101090000800F550300AD8B4F2D711C0F6FF12C0DC
:1010A000F7FF000EF86E0800F5CF01F0B1EC0BF081
:1010B000D8A034D0000E226E000E216E21C001F0A7
:1010C00022C002F0000E046E0A0E036E43EC0BF019
:1010D00001C021F002C022F011C0F6FF12C0F7FFDC
:1010E000000EF86E0800F5CF15F0D00E1524166E20
:1010F000176AFF0E17221650212617502222114A76
:10110000122A11C0F6FF12C0F7FF000EF86E080099
:10111000F5CF01F0B1EC0BF0D8B0D0D71150156E6F
:101120001250166E114A122A15C0F6FF16C0F7FFAC
:10113000000EF86E0800F5CF23F02350000AD8B453
:10114000DDD0640AD8B403D00D0AD8A4C6D018C024
:10115000D9FF19C0DAFFDECF1BF0DDCF1CF0020E85
:101160001826000E19221CAE06D0030E20121B6C8E
:101170001C1ED8B01C2A156E010E236E155023506C
:10118000050AD8B419D02350020D000EF324F66ED0
:10119000100EF420F76EF86A000EF8220900F5CF61
:1011A00015F00900F5CF16F015501B5C16501C58B1
:1011B000D8A002D0232AE3D722502110D8B407D0D8
:1011C0002050030BD8B403D02106D8A02206800EED
:1011D00023BE7F0E156E2150235C2250800A1558C5
:1011E000D8B007D02350215E000E23BEFF0E225A36
:1011F00004D0000E226E000E216E20A41CD02050C0
:10120000030BD8B408D00FC0D9FF10C0DAFF2D0EE1
:10121000DF6E0F4A102A22502110D8B42BD00FC0F5
:10122000D9FF10C0DAFF300EDF6E0F4A102A2106F8
:10123000D8A02206F0D722502110D8B40FD00FC06A
:10124000D9FF10C0DAFF200EDF6E0F4A102A2106E8
:10125000D8A0220622502110D8A4F1D72050030B89
:10126000D8B408D00FC0D9FF10C0DAFF2D0EDF6E42
:101270000F4A102A23C01AF02CD01A50020D000E6B
:10128000F324F66E100EF420F76EF86A000EF822C2
:101290000900F5CF03F00A00F5CF04F01BC001F000
:1012A0001CC002F0F5EC0AF001C009F002C00AF01F
:1012B000000E0C6E0A0E0B6E20EC0BF00950300F76
:1012C000236E0FC0D9FF10C0DAFF23C0DFFF0F4A23
:1012D000102A1A061A28D8A4D0D71150156E125009
:1012E000166E114A122A15C0F6FF16C0F7FF000E3F
:1012F000F86E0800F5CF23F02366ABD60FC0D9FFF8
:1013000010C0DAFF000EDF6E1200700ED36E9B8CE1
:10131000000E846E84CF83FF83CF82FF82CF81FF54
:1013200081CF80FF000E966E96CF95FF95CF94FFEC
:1013300094CF93FF93CF92FF05EC0CF0100E036E49
:101340000A0E026EC9EC0AF015EC0CF025EC0CF05C
:10135000F2EC0BF0246E020E086E2450256E400E47
:10136000096E255015EC0AF0246E010E266E2450ED
:10137000246E000E666E245023D0000E096E400EBF
:10138000086E60EC0BF0000E106E460E0F6E100E25
:10139000126E2D0E116E26C013F0146A24EC08F0A4
:1013A000000E036E460E026EC9EC0AF0265026248B
:1013B000266E010E026E2C0E016EC3EC0BF0662A37
:1013C000070E6664DAD7246E800E266E2450246ED3
:1013D000000E666E245023D0D8902630266E000E64
:1013E000096E400E086E60EC0BF0000E106E460E9B
:1013F0000F6E100E126E2D0E116E26C013F0146AB1
:1014000024EC08F0000E036E460E026EC9EC0AF0E2
:10141000010E026E2C0E016EC3EC0BF0662A050E57
:101420006664DAD78972A0D7FFD7949294908B82A2
:101430008B90000E026E640E016EC3EC0BF00A6E10
:10144000000E026E0A500B6E0A0E036E0B50E6EC95
:101450000BF0000E026E0A0E016EC3EC0BF00A6E6A
:10146000010E026E0A500B6E010E036E0B50E6EC7D
:101470000BF00A6E020E026E0A500B6E010E036E26
:101480000B50E6EC0BF00A6E030E026E0A500B6E68
:10149000030E036E0B50E6EC0BF00A6E040E026EA8
:1014A0000A500B6E000E036E0B50E6EC0BF009C0F9
:1014B00004F0FCEC0BF00A6E060E026E0A500B6E86
:1014C0000E0E036E0B50E6EC0BF00A6E2A0E026E47
:1014D0000A50000E046E6F0E036E0B6E050E056E45
:1014E0000B507DEC0BF00A6E300E026E0A50000EAF
:1014F000046E6F0E036E0B6E050E056E0B507DECC9
:101500000BF00A6E110E026E0A500B6E050E036E82
:101510000B50E6EC0BF0000E026E640E016EC3EC95
:101520000BF008C004F09CEC0AF0000E026E640E92
:10153000016EC3EC0BF01200D5EC0BF0056E070E3C
:10154000026E0550066E700E036E0650E6EC0BF050
:1015500018D0056E000E026E0550066E0F0E036E5B
:101560000650E6EC0BF08B8013D0056E000E026E79
:101570000550066E0E0E036E0650E6EC0BF08B90D7
:1015800007D00450010AD8B4E4D7030AD8B4EDD781
:10159000120016D002C0F6FF03C0F7FF000EF86E6F
:1015A0000F0EF76403D00800F55005D0F6CFE9FF21
:1015B000F7CFEAFFEF50016E1CEC0CF0024A032A51
:1015C00002C0F6FF03C0F7FF000EF86E0F0EF764BF
:1015D00003D00800F55005D0F6CFE9FFF7CFEAFFBA
:1015E000EF500009D8B41200D5D7000E076E000ED8
:1015F000066E04500310D8B41ED0056E010E086E9E
:10160000055004D0D89003360436082A04AEFAD721
:10161000D890063607360350015C04500258D8A013
:1016200005D00350015E0450025A0680D89004325F
:101630000332082EEDD706C001F007C002F01200F9
:101640000C500B10D8B41AD00D6E010E0E6E0D504A
:1016500004D0D8900B360C360E2A0CAEFAD70B50AD
:10166000095C0C500A58D8A004D00B50095E0C50ED
:101670000A5AD8900C320B320E2EF1D709C009F05D
:101680000AC00AF0120001500302F3CF05F0F4CFB4
:1016900006F001500402F3CFF4FFF36AF35005267D
:1016A000F450062202500302F3CFF4FFF36AF35022
:1016B0000526F450062205C001F006C002F0120013
:1016C0000A6E020E046E0A509CEC0AF00A6EA00E1E
:1016D000026E0A5008C003F009C004F00B6E050E3C
:1016E000056E0B507DEC0BF08B80000E026E010E30
:1016F000016EC3EC0BF08B9012008B9202C001F0D4
:101700000EEC0CF0066E000E076E06500BD003C0F8
:10171000D9FF04C0DAFFDF50016E0EEC0CF0034A73
:10172000042A072A0550075CD8A0F1D78B82120043
:1017300000EE67F0080EEE6AE806FDE1440EF66E74
:10174000180EF76E000EF86E00EE6FF010EE05F05A
:101750000900F5CFEEFFE550E150FAE1000185EF19
:1017600009F0026E000E036E02503A0E016007D0BF
:101770002F0E016404D0026E010E036E025003C0EE
:1017800002F002301200000E046E000E036E06D04E
:10179000FA0E00F0E82EFDD7034A042A0150035C3C
:1017A00002500458D8B01200F3D78B92026EE10EAB
:1017B000016E02500EEC0CF08B828B92026EE20EE8
:1017C000016E02500EEC0CF08B8212008B920250D4
:1017D0002009016E0EEC0CF003C001F00EEC0CF0D1
:1017E0008B8212009496949A9488929AC68AC00E1C
:1017F000C76E210EC66E1200056E050E026E0550F4
:1018000004C003F0E6EC0BF01200190EAF6E948CDE
:10181000948E240EAC6EB896AB8E120001C0C9FF38
:10182000C7A0FED7C9CF01F012000A0EC16EBC0ED0
:10183000C06E110EC26E12009E9801C0ADFFACB218
:0E1840001200FDD7050403020100C69A120033
:020000040020DA
:08000000FFFFFFFFFFFFFFFF00
:020000040030CA
:0E000000FF01011EFF8181FF0FC00FE00F40C6
:00000001FF
